{
    "_format": "hh-sol-artifact-1",
    "contractName": "Transactions",
    "sourceName": "contracts/Transactions.sol",
    "abi": [
        {
            "anonymous": false,
            "inputs": [
                {
                    "indexed": true,
                    "internalType": "address",
                    "name": "from",
                    "type": "address"
                },
                {
                    "indexed": true,
                    "internalType": "address",
                    "name": "receiver",
                    "type": "address"
                },
                {
                    "indexed": false,
                    "internalType": "uint256",
                    "name": "amount",
                    "type": "uint256"
                },
                {
                    "indexed": false,
                    "internalType": "string",
                    "name": "message",
                    "type": "string"
                },
                {
                    "indexed": false,
                    "internalType": "uint256",
                    "name": "timestamp",
                    "type": "uint256"
                },
                {
                    "indexed": false,
                    "internalType": "string",
                    "name": "keyword",
                    "type": "string"
                }
            ],
            "name": "TransactionAdded",
            "type": "event"
        },
        {
            "inputs": [
                {
                    "internalType": "address",
                    "name": "_receiver",
                    "type": "address"
                },
                {
                    "internalType": "uint256",
                    "name": "_amount",
                    "type": "uint256"
                },
                {
                    "internalType": "string",
                    "name": "_message",
                    "type": "string"
                },
                {
                    "internalType": "string",
                    "name": "_keyword",
                    "type": "string"
                }
            ],
            "name": "addToBlockchain",
            "outputs": [],
            "stateMutability": "nonpayable",
            "type": "function"
        },
        {
            "inputs": [],
            "name": "getAllTransactions",
            "outputs": [
                {
                    "components": [
                        {
                            "internalType": "address",
                            "name": "from",
                            "type": "address"
                        },
                        {
                            "internalType": "address",
                            "name": "receiver",
                            "type": "address"
                        },
                        {
                            "internalType": "uint256",
                            "name": "amount",
                            "type": "uint256"
                        },
                        {
                            "internalType": "string",
                            "name": "message",
                            "type": "string"
                        },
                        {
                            "internalType": "uint256",
                            "name": "timestamp",
                            "type": "uint256"
                        },
                        {
                            "internalType": "string",
                            "name": "keyword",
                            "type": "string"
                        }
                    ],
                    "internalType": "struct Transactions.Transaction[]",
                    "name": "",
                    "type": "tuple[]"
                }
            ],
            "stateMutability": "view",
            "type": "function"
        },
        {
            "inputs": [],
            "name": "getTransactionsCount",
            "outputs": [
                {
                    "internalType": "uint256",
                    "name": "",
                    "type": "uint256"
                }
            ],
            "stateMutability": "view",
            "type": "function"
        },
        {
            "inputs": [
                {
                    "internalType": "uint256",
                    "name": "",
                    "type": "uint256"
                }
            ],
            "name": "transactions",
            "outputs": [
                {
                    "internalType": "address",
                    "name": "from",
                    "type": "address"
                },
                {
                    "internalType": "address",
                    "name": "receiver",
                    "type": "address"
                },
                {
                    "internalType": "uint256",
                    "name": "amount",
                    "type": "uint256"
                },
                {
                    "internalType": "string",
                    "name": "message",
                    "type": "string"
                },
                {
                    "internalType": "uint256",
                    "name": "timestamp",
                    "type": "uint256"
                },
                {
                    "internalType": "string",
                    "name": "keyword",
                    "type": "string"
                }
            ],
            "stateMutability": "view",
            "type": "function"
        }
    ],
    "bytecode": "0x608060405234801561001057600080fd5b50610fd0806100206000396000f3fe608060405234801561001057600080fd5b506004361061004c5760003560e01c806327506f5314610051578063578cb8f91461006f5780639ace38c21461008d578063cc2d7ead146100c2575b600080fd5b6100596100de565b60405161006691906108e8565b60405180910390f35b610077610321565b6040516100849190610919565b60405180910390f35b6100a760048036038101906100a29190610974565b61032d565b6040516100b9969594939291906109fa565b60405180910390f35b6100dc60048036038101906100d79190610bca565b6104c9565b005b60606000805480602002602001604051908101604052809291908181526020016000905b8282101561031857838290600052602060002090600602016040518060c00160405290816000820160009054906101000a900473ffffffffffffffffffffffffffffffffffffffff1673ffffffffffffffffffffffffffffffffffffffff1673ffffffffffffffffffffffffffffffffffffffff1681526020016001820160009054906101000a900473ffffffffffffffffffffffffffffffffffffffff1673ffffffffffffffffffffffffffffffffffffffff1673ffffffffffffffffffffffffffffffffffffffff168152602001600282015481526020016003820180546101eb90610c98565b80601f016020809104026020016040519081016040528092919081815260200182805461021790610c98565b80156102645780601f1061023957610100808354040283529160200191610264565b820191906000526020600020905b81548152906001019060200180831161024757829003601f168201915b505050505081526020016004820154815260200160058201805461028790610c98565b80601f01602080910402602001604051908101604052809291908181526020018280546102b390610c98565b80156103005780601f106102d557610100808354040283529160200191610300565b820191906000526020600020905b8154815290600101906020018083116102e357829003601f168201915b50505050508152505081526020019060010190610102565b50505050905090565b60008080549050905090565b6000818154811061033d57600080fd5b90600052602060002090600602016000915090508060000160009054906101000a900473ffffffffffffffffffffffffffffffffffffffff16908060010160009054906101000a900473ffffffffffffffffffffffffffffffffffffffff16908060020154908060030180546103b290610c98565b80601f01602080910402602001604051908101604052809291908181526020018280546103de90610c98565b801561042b5780601f106104005761010080835404028352916020019161042b565b820191906000526020600020905b81548152906001019060200180831161040e57829003601f168201915b50505050509080600401549080600501805461044690610c98565b80601f016020809104026020016040519081016040528092919081815260200182805461047290610c98565b80156104bf5780601f10610494576101008083540402835291602001916104bf565b820191906000526020600020905b8154815290600101906020018083116104a257829003601f168201915b5050505050905086565b60006040518060c001604052803373ffffffffffffffffffffffffffffffffffffffff1681526020018673ffffffffffffffffffffffffffffffffffffffff168152602001858152602001848152602001428152602001838152509050600081908060018154018082558091505060019003906000526020600020906006020160009091909190915060008201518160000160006101000a81548173ffffffffffffffffffffffffffffffffffffffff021916908373ffffffffffffffffffffffffffffffffffffffff16021790555060208201518160010160006101000a81548173ffffffffffffffffffffffffffffffffffffffff021916908373ffffffffffffffffffffffffffffffffffffffff1602179055506040820151816002015560608201518160030190816105ff9190610e75565b506080820151816004015560a082015181600501908161061f9190610e75565b505050806020015173ffffffffffffffffffffffffffffffffffffffff16816000015173ffffffffffffffffffffffffffffffffffffffff167f33dbcdd3036be0bf3fc29e44421c4e6eea61e4839c80ab81fcce1fbeb97d94578360400151846060015185608001518660a0015160405161069d9493929190610f47565b60405180910390a35050505050565b600081519050919050565b600082825260208201905092915050565b6000819050602082019050919050565b600073ffffffffffffffffffffffffffffffffffffffff82169050919050565b6000610703826106d8565b9050919050565b610713816106f8565b82525050565b6000819050919050565b61072c81610719565b82525050565b600081519050919050565b600082825260208201905092915050565b60005b8381101561076c578082015181840152602081019050610751565b60008484015250505050565b6000601f19601f8301169050919050565b600061079482610732565b61079e818561073d565b93506107ae81856020860161074e565b6107b781610778565b840191505092915050565b600060c0830160008301516107da600086018261070a565b5060208301516107ed602086018261070a565b5060408301516108006040860182610723565b50606083015184820360608601526108188282610789565b915050608083015161082d6080860182610723565b5060a083015184820360a08601526108458282610789565b9150508091505092915050565b600061085e83836107c2565b905092915050565b6000602082019050919050565b600061087e826106ac565b61088881856106b7565b93508360208202850161089a856106c8565b8060005b858110156108d657848403895281516108b78582610852565b94506108c283610866565b925060208a0199505060018101905061089e565b50829750879550505050505092915050565b600060208201905081810360008301526109028184610873565b905092915050565b61091381610719565b82525050565b600060208201905061092e600083018461090a565b92915050565b6000604051905090565b600080fd5b600080fd5b61095181610719565b811461095c57600080fd5b50565b60008135905061096e81610948565b92915050565b60006020828403121561098a5761098961093e565b5b60006109988482850161095f565b91505092915050565b6109aa816106f8565b82525050565b600082825260208201905092915050565b60006109cc82610732565b6109d681856109b0565b93506109e681856020860161074e565b6109ef81610778565b840191505092915050565b600060c082019050610a0f60008301896109a1565b610a1c60208301886109a1565b610a29604083018761090a565b8181036060830152610a3b81866109c1565b9050610a4a608083018561090a565b81810360a0830152610a5c81846109c1565b9050979650505050505050565b610a72816106f8565b8114610a7d57600080fd5b50565b600081359050610a8f81610a69565b92915050565b600080fd5b600080fd5b7f4e487b7100000000000000000000000000000000000000000000000000000000600052604160045260246000fd5b610ad782610778565b810181811067ffffffffffffffff82111715610af657610af5610a9f565b5b80604052505050565b6000610b09610934565b9050610b158282610ace565b919050565b600067ffffffffffffffff821115610b3557610b34610a9f565b5b610b3e82610778565b9050602081019050919050565b82818337600083830152505050565b6000610b6d610b6884610b1a565b610aff565b905082815260208101848484011115610b8957610b88610a9a565b5b610b94848285610b4b565b509392505050565b600082601f830112610bb157610bb0610a95565b5b8135610bc1848260208601610b5a565b91505092915050565b60008060008060808587031215610be457610be361093e565b5b6000610bf287828801610a80565b9450506020610c038782880161095f565b935050604085013567ffffffffffffffff811115610c2457610c23610943565b5b610c3087828801610b9c565b925050606085013567ffffffffffffffff811115610c5157610c50610943565b5b610c5d87828801610b9c565b91505092959194509250565b7f4e487b7100000000000000000000000000000000000000000000000000000000600052602260045260246000fd5b60006002820490506001821680610cb057607f821691505b602082108103610cc357610cc2610c69565b5b50919050565b60008190508160005260206000209050919050565b60006020601f8301049050919050565b600082821b905092915050565b600060088302610d2b7fffffffffffffffffffffffffffffffffffffffffffffffffffffffffffffffff82610cee565b610d358683610cee565b95508019841693508086168417925050509392505050565b6000819050919050565b6000610d72610d6d610d6884610719565b610d4d565b610719565b9050919050565b6000819050919050565b610d8c83610d57565b610da0610d9882610d79565b848454610cfb565b825550505050565b600090565b610db5610da8565b610dc0818484610d83565b505050565b5b81811015610de457610dd9600082610dad565b600181019050610dc6565b5050565b601f821115610e2957610dfa81610cc9565b610e0384610cde565b81016020851015610e12578190505b610e26610e1e85610cde565b830182610dc5565b50505b505050565b600082821c905092915050565b6000610e4c60001984600802610e2e565b1980831691505092915050565b6000610e658383610e3b565b9150826002028217905092915050565b610e7e82610732565b67ffffffffffffffff811115610e9757610e96610a9f565b5b610ea18254610c98565b610eac828285610de8565b600060209050601f831160018114610edf5760008415610ecd578287015190505b610ed78582610e59565b865550610f3f565b601f198416610eed86610cc9565b60005b82811015610f1557848901518255600182019150602085019450602081019050610ef0565b86831015610f325784890151610f2e601f891682610e3b565b8355505b6001600288020188555050505b505050505050565b6000608082019050610f5c600083018761090a565b8181036020830152610f6e81866109c1565b9050610f7d604083018561090a565b8181036060830152610f8f81846109c1565b90509594505050505056fea2646970667358221220fee7679da71581d687679787b5d5aedc40bf503f11ff415d9c6a4dd49b16d06964736f6c63430008130033",
    "linkReferences": {},
    "deployedLinkReferences": {}
}